{"contracts/Counter.sol":{"Counter":{"abi":[{"anonymous":false,"inputs":[{"indexed":false,"internalType":"uint256","name":"_decrease","type":"uint256"},{"indexed":false,"internalType":"uint256","name":"_value","type":"uint256"}],"name":"Decreased","type":"event"},{"anonymous":false,"inputs":[{"indexed":false,"internalType":"uint256","name":"_increase","type":"uint256"},{"indexed":false,"internalType":"uint256","name":"_value","type":"uint256"}],"name":"Increased","type":"event"},{"inputs":[],"name":"decrease","outputs":[],"stateMutability":"nonpayable","type":"function"},{"inputs":[],"name":"increase","outputs":[],"stateMutability":"nonpayable","type":"function"},{"inputs":[],"name":"reset","outputs":[],"stateMutability":"nonpayable","type":"function"},{"inputs":[],"name":"viewValue","outputs":[{"internalType":"uint256","name":"","type":"uint256"}],"stateMutability":"view","type":"function"}],"evm":{"bytecode":{"linkReferences":{},"object":"60806040526000805534801561001457600080fd5b506102c1806100246000396000f3fe608060405234801561001057600080fd5b506004361061004c5760003560e01c80631a6a959414610051578063d732d9551461006f578063d826f88f14610079578063e8927fbc14610083575b600080fd5b61005961008d565b6040516100669190610162565b60405180910390f35b610077610096565b005b6100816100eb565b005b61008b6100f4565b005b60008054905090565b6000808154809291906100a8906101ac565b91905055507f5c42772fd61cf5980a5c70e3b4504f0a5783d73d2272e2e9ff636b786827950060016000546040516100e192919061021a565b60405180910390a1565b60008081905550565b60008081548092919061010690610243565b91905055507f30845c3e9107632fad0d79850bbf4bad84d533879c7068c957ca3851510d5281600160005460405161013f92919061021a565b60405180910390a1565b6000819050919050565b61015c81610149565b82525050565b60006020820190506101776000830184610153565b92915050565b7f4e487b7100000000000000000000000000000000000000000000000000000000600052601160045260246000fd5b60006101b782610149565b9150600082036101ca576101c961017d565b5b600182039050919050565b6000819050919050565b6000819050919050565b60006102046101ff6101fa846101d5565b6101df565b610149565b9050919050565b610214816101e9565b82525050565b600060408201905061022f600083018561020b565b61023c6020830184610153565b9392505050565b600061024e82610149565b91507fffffffffffffffffffffffffffffffffffffffffffffffffffffffffffffffff82036102805761027f61017d565b5b60018201905091905056fea26469706673582212202a87c390b358ba4c520ec2ce0e3f64d1abcd10b90a137d97bffa5b2f02f4249f64736f6c63430008120033","opcodes":"PUSH1 0x80 PUSH1 0x40 MSTORE PUSH1 0x0 DUP1 SSTORE CALLVALUE DUP1 ISZERO PUSH2 0x14 JUMPI PUSH1 0x0 DUP1 REVERT JUMPDEST POP PUSH2 0x2C1 DUP1 PUSH2 0x24 PUSH1 0x0 CODECOPY PUSH1 0x0 RETURN INVALID PUSH1 0x80 PUSH1 0x40 MSTORE CALLVALUE DUP1 ISZERO PUSH2 0x10 JUMPI PUSH1 0x0 DUP1 REVERT JUMPDEST POP PUSH1 0x4 CALLDATASIZE LT PUSH2 0x4C JUMPI PUSH1 0x0 CALLDATALOAD PUSH1 0xE0 SHR DUP1 PUSH4 0x1A6A9594 EQ PUSH2 0x51 JUMPI DUP1 PUSH4 0xD732D955 EQ PUSH2 0x6F JUMPI DUP1 PUSH4 0xD826F88F EQ PUSH2 0x79 JUMPI DUP1 PUSH4 0xE8927FBC EQ PUSH2 0x83 JUMPI JUMPDEST PUSH1 0x0 DUP1 REVERT JUMPDEST PUSH2 0x59 PUSH2 0x8D JUMP JUMPDEST PUSH1 0x40 MLOAD PUSH2 0x66 SWAP2 SWAP1 PUSH2 0x162 JUMP JUMPDEST PUSH1 0x40 MLOAD DUP1 SWAP2 SUB SWAP1 RETURN JUMPDEST PUSH2 0x77 PUSH2 0x96 JUMP JUMPDEST STOP JUMPDEST PUSH2 0x81 PUSH2 0xEB JUMP JUMPDEST STOP JUMPDEST PUSH2 0x8B PUSH2 0xF4 JUMP JUMPDEST STOP JUMPDEST PUSH1 0x0 DUP1 SLOAD SWAP1 POP SWAP1 JUMP JUMPDEST PUSH1 0x0 DUP1 DUP2 SLOAD DUP1 SWAP3 SWAP2 SWAP1 PUSH2 0xA8 SWAP1 PUSH2 0x1AC JUMP JUMPDEST SWAP2 SWAP1 POP SSTORE POP PUSH32 0x5C42772FD61CF5980A5C70E3B4504F0A5783D73D2272E2E9FF636B7868279500 PUSH1 0x1 PUSH1 0x0 SLOAD PUSH1 0x40 MLOAD PUSH2 0xE1 SWAP3 SWAP2 SWAP1 PUSH2 0x21A JUMP JUMPDEST PUSH1 0x40 MLOAD DUP1 SWAP2 SUB SWAP1 LOG1 JUMP JUMPDEST PUSH1 0x0 DUP1 DUP2 SWAP1 SSTORE POP JUMP JUMPDEST PUSH1 0x0 DUP1 DUP2 SLOAD DUP1 SWAP3 SWAP2 SWAP1 PUSH2 0x106 SWAP1 PUSH2 0x243 JUMP JUMPDEST SWAP2 SWAP1 POP SSTORE POP PUSH32 0x30845C3E9107632FAD0D79850BBF4BAD84D533879C7068C957CA3851510D5281 PUSH1 0x1 PUSH1 0x0 SLOAD PUSH1 0x40 MLOAD PUSH2 0x13F SWAP3 SWAP2 SWAP1 PUSH2 0x21A JUMP JUMPDEST PUSH1 0x40 MLOAD DUP1 SWAP2 SUB SWAP1 LOG1 JUMP JUMPDEST PUSH1 0x0 DUP2 SWAP1 POP SWAP2 SWAP1 POP JUMP JUMPDEST PUSH2 0x15C DUP2 PUSH2 0x149 JUMP JUMPDEST DUP3 MSTORE POP POP JUMP JUMPDEST PUSH1 0x0 PUSH1 0x20 DUP3 ADD SWAP1 POP PUSH2 0x177 PUSH1 0x0 DUP4 ADD DUP5 PUSH2 0x153 JUMP JUMPDEST SWAP3 SWAP2 POP POP JUMP JUMPDEST PUSH32 0x4E487B7100000000000000000000000000000000000000000000000000000000 PUSH1 0x0 MSTORE PUSH1 0x11 PUSH1 0x4 MSTORE PUSH1 0x24 PUSH1 0x0 REVERT JUMPDEST PUSH1 0x0 PUSH2 0x1B7 DUP3 PUSH2 0x149 JUMP JUMPDEST SWAP2 POP PUSH1 0x0 DUP3 SUB PUSH2 0x1CA JUMPI PUSH2 0x1C9 PUSH2 0x17D JUMP JUMPDEST JUMPDEST PUSH1 0x1 DUP3 SUB SWAP1 POP SWAP2 SWAP1 POP JUMP JUMPDEST PUSH1 0x0 DUP2 SWAP1 POP SWAP2 SWAP1 POP JUMP JUMPDEST PUSH1 0x0 DUP2 SWAP1 POP SWAP2 SWAP1 POP JUMP JUMPDEST PUSH1 0x0 PUSH2 0x204 PUSH2 0x1FF PUSH2 0x1FA DUP5 PUSH2 0x1D5 JUMP JUMPDEST PUSH2 0x1DF JUMP JUMPDEST PUSH2 0x149 JUMP JUMPDEST SWAP1 POP SWAP2 SWAP1 POP JUMP JUMPDEST PUSH2 0x214 DUP2 PUSH2 0x1E9 JUMP JUMPDEST DUP3 MSTORE POP POP JUMP JUMPDEST PUSH1 0x0 PUSH1 0x40 DUP3 ADD SWAP1 POP PUSH2 0x22F PUSH1 0x0 DUP4 ADD DUP6 PUSH2 0x20B JUMP JUMPDEST PUSH2 0x23C PUSH1 0x20 DUP4 ADD DUP5 PUSH2 0x153 JUMP JUMPDEST SWAP4 SWAP3 POP POP POP JUMP JUMPDEST PUSH1 0x0 PUSH2 0x24E DUP3 PUSH2 0x149 JUMP JUMPDEST SWAP2 POP PUSH32 0xFFFFFFFFFFFFFFFFFFFFFFFFFFFFFFFFFFFFFFFFFFFFFFFFFFFFFFFFFFFFFFFF DUP3 SUB PUSH2 0x280 JUMPI PUSH2 0x27F PUSH2 0x17D JUMP JUMPDEST JUMPDEST PUSH1 0x1 DUP3 ADD SWAP1 POP SWAP2 SWAP1 POP JUMP INVALID LOG2 PUSH5 0x6970667358 0x22 SLT KECCAK256 0x2A DUP8 0xC3 SWAP1 0xB3 PC 0xBA 0x4C MSTORE 0xE 0xC2 0xCE 0xE EXTCODEHASH PUSH5 0xD1ABCD10B9 EXP SGT PUSH30 0x97BFFA5B2F02F4249F64736F6C6343000812003300000000000000000000 "},"methodIdentifiers":{"decrease()":"d732d955","increase()":"e8927fbc","reset()":"d826f88f","viewValue()":"1a6a9594"}}}}}